:020000040800F2
:1000000048BB0020B9020008353300080927000862
:10001000313300082D1A0008DF53000800000000EB
:10002000000000000000000000000000893A000805
:10003000611D0008000000002D370008993D0008F0
:10004000D3020008D3020008D3020008D30200083C
:10005000D3020008D3020008D3020008D30200082C
:10006000D3020008D3020008D3020008D30200081C
:10007000D3020008D3020008D3020008D30200080C
:10008000D3020008D3020008D3020008D3020008FC
:10009000D3020008D3020008D3020008D3020008EC
:1000A000D3020008D3020008D3020008D3020008DC
:1000B000D3020008FD3D0008E13E0008D30200081D
:1000C000D3020008D3020008D3020008D3020008BC
:1000D000D302000891500008D3020008195100080B
:1000E000D3020008D3020008D3020008D30200089C
:1000F000D3020008D3020008D3020008D30200088C
:10010000D3020008A9380008D3020008D30200086F
:10011000D3020008D3020008D3020008D30200086B
:10012000D3020008D3020008D3020008D30200085B
:1001300000F002F800F0B0F80AA090E8000C824449
:100140008344AAF10107DA4501D100F0A5F8AFF226
:10015000090EBAE80F0013F0010F18BFFB1A43F0A5
:100160000103184748C2000068C200000A444FF06B
:10017000000C10F8013B13F0070408BF10F8014B06
:100180001D1108BF10F8015B641E05D010F8016B4B
:10019000641E01F8016BF9D113F0080F1EBF10F8AF
:1001A000014BAD1C0C1B09D16D1E58BF01F801CBD2
:1001B000FAD505E014F8016B01F8016B6D1EF9D555
:1001C0009142D6D37047000000230024002500266A
:1001D000103A28BF78C1FBD8520728BF30C148BFAA
:1001E0000B6070476E2900F04383702900F0858111
:1001F00066290AF0088365290AF0058367290AF051
:1002000002836129AFF3008003681B0A28BF41F015
:100210008001692900F0F680642900F0F3807529D7
:1002200000F0F0806F2900F03B84782900F05181C4
:10023000E92900F0D583E42900F0D283F52900F004
:10024000CF83EF2900F03884F82900F0508103684B
:10025000DB0928BF41F08001632900F04483732942
:1002600000F04983E32900F09186F32900F0968697
:10027000002070471FB500F0EBFE040000200021B5
:1002800009F05AFB401C60600020002109F03EFB91
:10029000E0601FBD10B510BD00F0ACFE1146FFF7C9
:1002A000E9FF08F063F800F085FF03B4FFF7F2FF01
:1002B00003BC05F0DAF80000094880470948004708
:1002C000FEE7FEE7FEE7FEE7FEE7FEE7FEE7FEE706
:1002D000FEE7FEE704480549054A064B7047000063
:1002E0009D3D00083101000848B5002048BB0020B2
:1002F00048B7002048B70020704700001CB50C46E6
:10030000064B7B4469460090204600F0CAFA04463A
:100310000020694600F0D8FA20461CBDC305000045
:100320000FB4044910B503AA029800F0E9FA10BC12
:100330005DF814FB1C0000200FB41CB5084B06AA86
:100340007B4469460090059800F0ABFA0446002013
:10035000694600F0B9FA20461CBC5DF814FB0000A9
:100360008505000070B5044685690068C10601D5A1
:10037000302600E02026C00707D070BDD4E9012157
:1003800030469047206A401C20626D1EF6D570BD35
:1003900070B5044685690078C00707D170BDD4E9FF
:1003A000012120209047206A401C20626D1EF6D556
:1003B00070BD70B50C460546012A05D02878800628
:1003C00000D5EA69002302E0012305E05B1C9342AB
:1003D00002D2E05C0028F9D1A869E618C01AA86129
:1003E000286A184428622846FFF7BCFF04E0D5E9D4
:1003F000012114F8010B9047B442F8D32846FFF7C7
:10040000C7FF70BD2DE9F04106460024106875292C
:10041000314616A510D000F0C0F9002802DA40429B
:1004200013A507E031688A0701D512A502E0490744
:1004300004D511A5012401E000F0B8F900210A2239
:1004400006F1240709E0B0FBF2FCB0FBF2F302FB7B
:100450001C00303078541846491C0028F3D123463C
:100460002A463046BDE8F04100F0A9B9000000007E
:100470002D0000002B00000020000000F0B40D460D
:100480000188090502D5214C7C4402E01F4C7C44C4
:100490000E34002100F1240608E002F00F071209D3
:1004A000E75D42EA03721B097754491C52EA0307CD
:1004B000F3D102780023120704D5702D06D009B1BC
:1004C000022311342246F0BC00F079B90123103424
:1004D000F8E770B504460D462146106800F066F94D
:1004E000024629462046BDE870400023C6E7D21DDB
:1004F00022F00703D3E90023C0E70368126843F042
:10050000200303600823C3610023B7E730BC000069
:100510002DE9F05F894604464FF0000ADFF874B118
:10052000FB44C0F820A02046E1688847002874D02A
:10053000252806D0D4E901219047206A401C20627A
:10054000F1E700265F462046E168884720280546F7
:1005500007DB312D05D2781910F8200C08B10643BD
:10056000F1E7B00701D526F00406C4F81CA0002767
:10057000C4F818A02A2D09D0284604F06FFF38B31C
:1005800004EB8708303DC8F8185019E059F8041BEF
:10059000204604EB87029161E1688847012F0546F8
:1005A00018D1E069002820DA26F020061DE0D8F8EE
:1005B000180000EB800005EB40003038C8F8180048
:1005C0002046E1688847054604F048FF0028EED140
:1005D000012F0AD02E2D08D12046E16888477F1CC4
:1005E0000546022F46F02006C4DBA069002803DA86
:1005F000404246F00106A061F00701D026F0100647
:100600006C2D0BD0682D09D04C2D39D06A2D35D0EA
:10061000742D35D07A2D33D016E038E0E1682F46BE
:1006200020468847B842054609D16C2F26D04FF4A2
:100630008060E168064320468847054604E06C2F49
:100640001AD04FF4807006430DB3A5F1410019286C
:1006500002D8203546F400664A46294620462660E0
:100660004E46FFF7BFFD80B101280BD0F61D26F0E6
:10067000070000F1080956E74020E4E78020D8E7AA
:100680000020D6E706F104094DE7284652E7206A24
:10069000BDE8F09FC0BB000030B505460B462A46BA
:1006A00013F8014B12F8010B08B1A042F8D01CB1AD
:1006B000002802D06D1CF1E7284630BD10B5431C60
:1006C00002E010F8011B71B18107FAD14FF001323D
:1006D00002C88C1A8C4314EAC211F9D0C01A0A0657
:1006E00003D0C01E10BDC01A10BD0A0401D0801E68
:1006F00010BD0902FCD0401E10BD00004FF0013CAF
:1007000050F8042B51F8043B9A4221D1A2EB0C0380
:10071000934313EACC1317D150F8042B51F8043B40
:100720009A4215D1A2EB0C03934313EACC130BD1DD
:1007300050F8042B51F8043B9A4209D1A2EB0C0368
:10074000934313EACC13DBD04FF00000704700BF97
:10075000D01A01BAB1FA81F101F0180122FA01F0C0
:10076000CB40C1F12001DBB2C0B2C01A2CFA01F3B8
:10077000D11A914311EAC311E6D17047704770470F
:100780007047704710B500F0A1F9006810BD10B5B2
:10079000044600F09BF9046010BD09684A0501D5C4
:1007A00040B27047C905FCD500B2704709684A05D8
:1007B00001D5C0B27047C905FCD580B270472DE99C
:1007C000F0470D4699469246044600F12408016818
:1007D000880604D5E06921F01001216000E00120C5
:1007E000A84201DD471B00E00027A1697A1902EB4E
:1007F0000900081AA0612078C00602D42046FFF73D
:10080000B1FD002608E0D4E901211AF8060090475E
:10081000206A401C761C20624E45F4DB2078C0061E
:100820000AD52046FFF79EFD06E0D4E901213020DD
:100830009047206A401C2062381EA7F10107F4DCB3
:1008400007E0D4E9012118F805009047206A401C10
:100850002062281EA5F10105F3DC2046FFF798FD74
:100860002078000602D50220BDE8F0870120FBE7D2
:1008700011680268006A530501D508700AE0D305C3
:1008800001D5088006E0130603D5C217C1E90002AE
:1008900000E008600120704701694A1C0261087885
:1008A000704700B58FB0CDE90131002105910549B0
:1008B0007944CDE9031011466846FFF729FE0FB0D1
:1008C00000BD0000E5FFFFFF0A6802F8010B0A60A7
:1008D000704710B5436913B1AFF3008001E0FFF733
:1008E00068FD012010BD127800F124010A70002279
:1008F0004A700122EDE711684FF0FF32E9E700008E
:10090000074B70B50D467B44FFF7CBFF04462846E6
:1009100000F048FB10B14FF0FF3070BD204670BDB5
:10092000477A00002DE9FF5F15468A460446DFF846
:10093000AC80F8440027D8E900103E46CDE900100D
:1009400010E03AF816106A4602A800F02FFB411C8E
:1009500007D02178890603D5E269391891420DD86C
:100960000744761C2078800602D5E069B84205DD90
:10097000AE42E6DB3AF816000028E2D1A069C01BBF
:10098000A0612046FFF7EEFCD8E90010CDE9001089
:10099000002017E03AF818106A4602A800F006FB9B
:1009A000B0F1FF3F81460BD000250DF1080B05E0AB
:1009B000D4E901211BF8050090476D1C4D45F7D384
:1009C00008F10100B0428046E4DB206A384420622E
:1009D0002046FFF7DDFCBDE8FF9F0000C2B7000026
:1009E0002DE9F0418046D21D22F007020025D2E910
:1009F0000002F52915A614D0011E72F1000106DAD5
:100A00000023D0EB030063EB020211A608E0D8F844
:100A100000108B0701D50FA602E0490701D50EA6ED
:100A200001251146002408F1240704E000F052F8E3
:100A300030323A55641C50EA0102F7D12B46324657
:100A400021464046BDE8F041FFF7B9BE0000000076
:100A50002D0000002B0000002000000030B4002119
:100A600000F1240408E002F00705D208303542EA1C
:100A70004372DB086554491C52EA0305F3D104684C
:100A8000002310A2250708D504F020040C4304D04D
:100A9000C46901230CA2641EC46130BCFFF78FBE81
:100AA00010B5044621461068FFF780FE0246204636
:100AB000BDE810400023D1E7D21D22F00701D1E9A3
:100AC0000023CBE700000000300000000048704722
:100AD000E4B4002030B5B0F10A024FEA900E71F193
:100AE00000034EEA817EB0EB0E0061EB91014FEA0C
:100AF000101E4EEA017E10EB0E0041EB11114FEA81
:100B0000102E4EEA016E10EB0E0041EB11214FEA60
:100B1000104E4EEA014E10EB0E0041EB1141401811
:100B200041F100014FEAD00040EA41704FEAD101A3
:100B300010EB80054FEA810444EA907444EB010411
:100B40006D1944EB0404521BA3414FF0000348BF4E
:100B50000A3200D530BD401C41F1000130BD704764
:100B60002DE9FF4F0C461E464FF0FF378BB0D2E900
:100B70000001DDF860800A908A46C1F30A5505B984
:100B80003D46002108464FF00000BAF1000F00F486
:100B9000400005DA00EB80004FF4400101EA50000C
:100BA0004FEA9059B9F1010F00DDB9460A9850EAB1
:100BB0004A000ED044F61050A5F2FF3545432F14DD
:100BC000B8F1000F1ED07542291E1EDDC9F10002CA
:100BD0001CE0B8F1010F4FF0000001D0302103E01C
:100BE000F24305E02154401CB042FBDB30460022BA
:100BF000002121540B99C1F80880C1E900200FB0F1
:100C0000BDE8F08FBD1B6D1CDEE74A4600DA694285
:100C100006A800F061FA06AB93E8070003AB83E88F
:100C2000070050460A9900F0CBFA8DE80700A0F5BE
:100C300000501F3800900398002D09DD42F21F017B
:100C40004A46084403A90390684600F02AFD08E0DC
:100C5000A0F500504A461F3803A90390684600F0EB
:100C600034FD8DE807000004000C03D04FF0FF3086
:100C7000410800E01046B8F1000F03D000220092B6
:100C800015461EE0751E05D4FFF724FF303262556D
:100C90006D1EF9D5B3460122084302D000227F1C05
:100CA00004E02078302801D100227F1E002A099715
:100CB00086D01DE0112D07DAFFF70CFF30326255A8
:100CC0006D1C50EA0102F5D1084302D00098C8B16A
:100CD0000EE00021681E05E0235C625C6354225430
:100CE000401E491C8142F7DBAB46A81B401E099001
:100CF000002004F80B000B98099AC0F80880C0E99E
:100D0000002B7CE711264FF0000859E72DE9F04F42
:100D100088460446D21D22F0070191B0D1E90001B6
:100D2000CDE90A0104F086FB02460B98C00F01D002
:100D30002D2007E02068810701D52B2002E020212B
:100D400001EAC000032A099001D0072A05DB034607
:100D50004146204600F080F90BE12078800601D55D
:100D6000E06900E00620B8F1650F814606D0B8F1D1
:100D7000660F18D0B8F1670F70D131E00020B9F1DB
:100D8000110F009001DB112301E009F101030AAA10
:100D900001A90CA8FFF7E4FEDDE90C70002609F1BB
:100DA0000105834647E001204B4600904FF0004785
:100DB0000AAA01A90CA8FFF7D3FEDDE90DB00C9932
:100DC0005D46002610B909F101000D18B9EB0500C8
:100DD00003D4C0F1FF3609F10105A5EB09002BE0B2
:100DE000B9F1010F01DA4FF001090020B9F1110F3B
:100DF0000090484601DD112300E003460AAA01A93C
:100E00000CA8FFF7ADFEDDE90C704D4600268346C9
:100E1000207800070AD4AB4500DA5D4601A8012D11
:100E200004DD411911F8011C302907D04F4502DAC1
:100E300017F1040F04DA012082460FE06D1EEEE781
:100E4000002F02DCED1B3E4403E0781CA84200DDCD
:100E50007D1CB81B00F1010A4FF000472078000705
:100E600003D4AA4501DB4FF0FF3A0021B7F1004F50
:100E70000DF143088DF8431024D002202B23002FBE
:100E800001DA7F422D230A21021EA0F1010000DCBD
:100E90005FB197FBF1FC97FBF1F201FB1C7C17465D
:100EA0000CF1300C08F801CDEEE7A8F10100037059
:100EB0002188090501D5452100E06521A0F101083F
:100EC00000F8011C09980FA9A1EB0807FF1D00B14C
:100ED0000120411901EBEA70A1693844081A401E4B
:100EE000A0612078C00602D42046FFF73BFA09989B
:100EF00028B1D4E901219047206A401C2062207863
:100F0000C00622D52046FFF72DFA1EE0002E04DB96
:100F1000B34502DD01A8805D00E03020D4E9012165
:100F20009047206A401C2062761CAAF101005FEA0B
:100F3000000A0AD100F08CF8C0680168405CD4E96E
:100F400001219047206A401C2062281EA5F101055E
:100F5000DCDC07E0D4E9012118F8010B9047206A96
:100F6000401C2062381EA7F10107F3DC2046FFF782
:100F70000FFA032011B043E610B5436913B1AFF384
:100F8000008001E0FFF7CEFC012010BD128800F1C7
:100F9000240182840022C2840122EDE711684FF00F
:100FA000FF32E9E7007B00F08000704770B516461D
:100FB0000C46054600F044F8036893F80101012847
:100FC00006D0FF2C0FD8185D68B101202C7070BDC1
:100FD000D3F807013246214603F20713034428469B
:100FE000BDE8704018474FF0FF3070BD00487047B3
:100FF000E4B400207546FFF7F9FFAE4605006946E8
:10100000534620F00700854618B020B5FFF762F977
:10101000BDE820404FF000064FF000074FF00008F9
:101020004FF0000B21F00701AC46ACE8C009ACE87A
:10103000C009ACE8C009ACE8C0098D4670470000A3
:1010400010B500F005F8001D10BD00BFED880000D0
:101050000048704704B500202DE9F0411F460446C2
:1010600003260168072A01F4006004DB08B116A515
:1010700005E016A503E008B115A500E015A521F0CF
:1010800010002060A069C01EA0610FB1401EA061C9
:101090002046FFF767F94FB1D4E901213846904760
:1010A000206A401C2062C01C206206E0206AFAE729
:1010B000D4E9012115F8010B9047761EF8D220469D
:1010C000FFF766F9BDE8F0814E414E006E616E009B
:1010D000494E4600696E66002DE9F0478146164686
:1010E0008AB0334878440DC88DE80D003048784404
:1010F000801C03AC0DC884E80D0041F69B30084409
:10110000372190FBF1F290FBF1F5A5F1800501FB91
:1011100012041B3C02D56442012000E00020DFF8ED
:1011200090A080460027FA44AAF1BE0A0DE0E0072D
:1011300009D03246684607EB47010AEB810100F00F
:10114000C4FA8DE8070064107F1C002CEFD1184F03
:101150007F44AC3F18E0E80714D007EB04100DF112
:10116000180A90E80E008AE80E00C068F04201D12B
:1011700098190890324606A903A800F0A6FA03AB16
:1011800083E807006D10641C002DE4D132466946E7
:10119000B8F1000F03A802D000F083FA01E000F0DC
:1011A00094FAC9E90001C9F808200AB0BDE8F0873F
:1011B00094B000000446AFF300802046FFF775F8B6
:1011C0005FEA400C08BF91F0000F4FEA8C234FEA12
:1011D000C12243EA51514FEA1C5018BF00F5F040BC
:1011E0004FEA300018BF41F000415FEA6C5C00F04C
:1011F0002980BCF1FF3F08BF40F080407047130CCE
:1012000006BF12044FF0100C4FF0000C130E04BF79
:1012100012020CF1080C130F04BF12010CF1040CA4
:10122000930F04BF92000CF1020CD30F04BF5200C5
:101230000CF1010C11464FF00002A0F11F00A0EBD1
:101240000C00704711F0004F08BF704731F00041AB
:101250003FF4D5AF0B0C06BF09044FF0100C4FF054
:10126000000C0B0E04BF09020CF1080C0B0F04BF9D
:1012700009010CF1040C8B0F04BF89000CF1020C66
:10128000CB0F04BF49000CF1010CCCF12003A0EB03
:101290000C0022FA03F302FA0CF241EA030100F116
:1012A0000100704720F07F4C80EA030023F07F4765
:1012B000ACEB070303F57C5300F0004003F1FF03A0
:1012C0002DE980494FEA154B09B44FEA144325EA4A
:1012D0000B4E24EA03480FF2042606EB13274908B5
:1012E0003E785FEA320203FB0667C7F5000707FB9B
:1012F00006F64FEA54374FEAD64606F1020607FBD8
:10130000066CCCF1005C4FEA1C472CEA074C07FB4B
:1013100006F40CFB06F504EB15464FEA961634BFAF
:1013200000204FF000404FEAD13706FB07FC4FEAA0
:101330001C4C0CFB0BF7D21B03FB0CF761EB0701FA
:101340000CFB0EF7B0EB074072EB17420CFB08F7F3
:1013500034BFA2EB0742B2EB074261EB17414FEA01
:101360000C444FEA910706FB07FC4FEA1C4C0CFBB0
:101370000BF7B0EBC74072EB573203FB0CF734BFEF
:10138000A2EBC742B2EBC74261EB57310CFB0EF741
:10139000B0EBC70072EB57720CFB08F734BFA2EB3F
:1013A000C702B2EBC70261EB5771039F4FEA81613D
:1013B00041EA921104EBCC044FEAD1374FEA826242
:1013C00006FB07FC42EA90124FEA80604FEA1C4C91
:1013D0000CFB0BF7D21B03FB0CF761EB07010CFBBB
:1013E0000EF7B0EB074072EB17420CFB08F734BF67
:1013F000A2EB0742B2EB074261EB17414FEA8C5573
:101400004FEA910704EB9C2406FB07FC4FEA1C4CB7
:101410000CFB0BF7B0EBC74072EB573203FB0CF73A
:1014200034BFA2EBC742B2EBC74261EB57310CFBB2
:101430000EF7B0EBC70072EB57720CFB08F734BF26
:10144000A2EBC702B2EBC70261EB577115EB4C255B
:101450004FEA816141EA92114FEA82624FEAD13745
:1014600042EA901206FB07FC44F100044FEA806058
:101470004FEA1C4C0CFB0BF7D21B03FB0CF761EB88
:1014800007010CFB0EF7B0EB074072EB17420CFBA9
:1014900008F734BFA2EB0742B2EB074261EB1741FA
:1014A00015EB1C154FEA813141EA92414FEA823235
:1014B00042EA90424FEA80304FEA0C7644F1000451
:1014C00048EA03434EEA0B484FF0000EB2EB080C1B
:1014D00071EB030724BF624639464EEB0E0E4FF008
:1014E000000B0018524149414BEB0B0BB2EB080CBF
:1014F00071EB03077BF1000B24BF624639464EEBCC
:101500000E0E4FF0000B0018524149414BEB0B0BF4
:10151000B2EB080C71EB03077BF1000B24BF6246B2
:1015200039464EEB0E0E51EA020718BF46F001068F
:1015300016EB0E7655F1000254F1000103D5BDE81B
:101540008901BDE80088BDE88901BDE80048B619F9
:10155000524141EB0101A3F10103704780807F7E7E
:101560007D7C7B7A79787776767574737271717019
:101570006F6E6E6D6C6C6B6A6A69686867666665CB
:101580006464636362616160605F5F5E5E5D5D5C59
:101590005C5B5B5A5A5959585857575656555555CA
:1015A0005454535352525251515050504F4F4F4E2A
:1015B0004E4D4D4D4C4C4C4B4B4B4A4A4A49494978
:1015C00048484847474747464646454545444444BA
:1015D000444343434342424242414141002B26D4CB
:1015E000770021D01CB54FEA370703B44FF0100045
:1015F0004FF010014FF000000FBCBDE810400BF1A0
:10160000010BBBF1010F08BF5FEA170722BF12F100
:10161000010211F101014FF0004143F1000300F01C
:10162000004043EA00007047F9D35708DAE746EA7A
:10163000064613F1400F4FEA16461FDD13F1200F47
:10164000DFBF16430A46002120335B42C8D0C3F1F6
:10165000200746EA064602FA07F74FEA164646EA28
:101660000706C3F1200722FA03F201FA07F721FA6D
:1016700003F14FF0000342EA0702B1E746EA02062F
:1016800046EA06464FEA164646EA0106BCBF46EA67
:101690000646360C4FF000034FF000024FF00001F9
:1016A0009EE72DE9C048934630B491E8380007C85A
:1016B00031EA400C48BF34EA430C03D5FFF7F2FD92
:1016C000FFF78CFFF0BCBDE800882DE9C0489346C9
:1016D00030B491E8380007C810F0804F08BF13F00D
:1016E000804F03D100F005F8FFF778FFF0BCBDE8AC
:1016F000008820F07F4780EA030023F07F4C07EB4F
:101700000C03A3F57C5300F00040A3F1FE0392F01C
:10171000000F00F0B38095F0000F00F077802DE906
:1017200001494FEA11404FEA144621EA004800FB04
:1017300006FC24EA064708FB06F607FB08F800FB50
:1017400007F718EB06484CEB164C4FEA124B18EB18
:1017500007484FEA15464CEB174022EA0B4E0BFBAD
:1017600006FC25EA06470EFB06F607FB0EFE0BFB02
:1017700007F71EEB064E4CEB164C4FF000061EEB27
:10178000074E4CEB174B18EB0B0840F1000018EB21
:101790000E0B58EB000840F100008F1A4FF00001CB
:1017A0003CBFC943661B14BFB5EB040C00213CBF12
:1017B000C943F61B4FEA17444EEA8E0E27EA04454A
:1017C0004FEA1C4704FB07622CEA074C05FB07F7AE
:1017D0000CFB05F604FB0CFC16EB074642EB17422C
:1017E00016EB0C4642EB1C421BEB060658EB0202C2
:1017F000414146EA9E0601D5BDE80189B61952412C
:1018000041EB0101A3F10103BDE801894FEA144551
:101810004FEA114724EA054621EA074C05FB07F485
:1018200006FB07F70CFB06F105FB0CFC11EB07416F
:1018300044EB17444FEA124711EB0C4144EB1C44B4
:1018400022EA074C05FB07F206FB07F70CFB06F63E
:1018500005FB0CFC16EB074642EB174216EB0C4659
:1018600042EB1C456A1854F1000148BF7047B61995
:10187000524141EB0101A3F10103704795F0000FC4
:1018800037D04FEA11424FEA144721EA024624EAD0
:10189000074C02FB07F106FB07F70CFB06F402FB03
:1018A0000CFC14EB074441EB17414FEA154714EBCE
:1018B0000C4441EB1C4125EA074C02FB07F506FBF3
:1018C00007F70CFB06F602FB0CFC16EB074645EB94
:1018D000174516EB0C4645EB1C42121951F100015D
:1018E00048BF7047B619524141EB0101A3F1010312
:1018F00070474FEA14454FEA114724EA054621EAAA
:10190000074C05FB07F106FB07F70CFB06F24FF04F
:10191000000605FB0CFC12EB074241EB174112EBF2
:101920000C4251EB1C4148BF7047921841EB01013A
:10193000A3F10103704710B500F010FF10BD70B5A2
:1019400006460C46154608E03046721C96B200F07A
:1019500007F804F8010B681E85B2002DF4D170BDA4
:1019600070B50446002600F0ADFF2546E11704EBF4
:1019700011610912A02202EB4101C8B200F068FF18
:1019800000F0ECFFE11704EB11610912A4EB012157
:10199000C8B200F05DFF00F0E1FF00F093FFA1206E
:1019A00000F056FF00F0DAFF002000F019FF0646B5
:1019B00000F0AEFF304670BD70B505460C461646C9
:1019C00006E02178284600F009F8681C85B2641CFE
:1019D0003000A6F101018EB2F3D170BD70B504469E
:1019E0000E4600F06FFF2546E11704EB1161091266
:1019F000A02202EB4101C8B200F02AFF00F0AEFFC6
:101A0000E11704EB11610912A4EB0121C8B200F047
:101A10001FFF00F0A3FF304600F01AFF00F09EFF0A
:101A200000F076FF0A2006F047FC70BD00BFFEE71D
:101A300010B5052006F066FC10BD000010B50020B2
:101A40000F4908600F48006820F0F0000D49086059
:101A50000846006840F030000860FFF7E9FF00200A
:101A60000949C1F8A401FFF7E3FF01200449086018
:101A7000FFF7DEFF00200549C1F8840110BD00001A
:101A800084812142041C01400080234200802142C5
:101A900008B50121882001F06BFE0220ADF800009E
:101AA00010208DF8030003208DF8020069460A48D3
:101AB00000F0F3FA0221084800F085FB4FF40070B3
:101AC000ADF800006946054800F0E7FA4FF40071F0
:101AD000024800F078FB08BD000C0140001C0140EA
:101AE00010B500200F4908600F48006820F0F00092
:101AF0000D4908600846006840F030000860FFF7B4
:101B000097FF01200949C1F8A401FFF791FF0120C7
:101B100004490860FFF78CFF00200549C1F88401E3
:101B200010BD000084812142041C0140008023423A
:101B30000080214270B5054600241648006820F058
:101B4000F000144908600846006840F08000086012
:101B50001E2006F0D7FB002611E000200E49086089
:101B6000FFF766FF01200D49C1F884016006040EED
:101B70000B48006808B1601CC4B2701CC6B2082EC5
:101B8000EBDB15B9FFF7ACFF01E0FFF757FF20468D
:101B900070BD0000041C014084812142008021426C
:101BA0002481234270B504461348006820F0F000F9
:101BB000114908600846006840F0300008600020C5
:101BC0000E490860FFF734FF002511E0E0090C49D9
:101BD00008606006040E01200A49C1F88401FFF77D
:101BE00027FF002005490860FFF722FF681CC5B2E7
:101BF000082DEBDB70BD0000041C014084812142F4
:101C0000A48123420080214210B50F48006820F0D3
:101C1000F0000D4908600846006840F03000086098
:101C200001200A4908600A49C1F884011E2006F013
:101C300069FB002005490860FFF7FAFE002004490F
:101C4000C1F8840110BD0000041C0140A48123429E
:101C50000080214210B50D48006820F0F0000B49CB
:101C600008600846006840F030000860012008491C
:101C700008601E2006F046FB00200649C1F8A401BA
:101C8000FFF7D6FE01200449086010BD041C014086
:101C90008481214200802342A481234210B5002484
:101CA0001348006820F0F0001149086008460068F9
:101CB00040F08000086001200E4908600E49C1F81C
:101CC0008401FFF7B5FE09E0601CC4B2FA2C03DD05
:101CD000FFF7C0FF012010BDFFF7AAFE05488038BE
:101CE00000680028F0D10549086000BFF3E7000054
:101CF000041C0140A48123420080214284812142AE
:101D000070B5044605E01548456B05F0450000B187
:101D100000E0F8E700BF042001F0BAFD20B1042084
:101D200001F0B0FD032070BD012001F0B1FD20B134
:101D3000012001F0A7FD0120F5E708480069A04255
:101D400001D01020EFE740F2FF50044988630846B5
:101D5000406908210840C0B2E5E70000008001406A
:101D6000704700001CB50121802001F001FD4FF4F7
:101D70000060ADF8000010208DF8030003208DF8FE
:101D8000020069462D4800F088F902212B4800F036
:101D90001AFA4FF48060ADF8000048208DF8030077
:101DA0006946264800F079F94FF48061234800F035
:101DB0000AFAFFF76DFE002021490860142006F0A2
:101DC0007BFA01201F49C1F8AC01322006F074FAF9
:101DD00000208DF80400012201A900F035F901224C
:101DE00001A9A42000F030F916208DF8040001228A
:101DF00001A9802000F028F90C208DF804000122B0
:101E000001A9882000F020F9022201A9A12000F0F8
:101E100021F89DF8040030280ED19DF80500032814
:101E20000AD19DF805009DF8042000EB022106A0D0
:101E3000FEF776FA00201CBD0120FCE7001C0140E3
:101E4000AC812342008023424354502049443A2528
:101E5000780D0A002DE9F04106460F461546FFF7BA
:101E6000D3FE7020FFF79EFEFFF718FFF0B2FFF7DA
:101E700099FEFFF713FFFFF7C7FE7120FFF792FEF1
:101E8000FFF70CFF00240BE0691EA14201D00121E5
:101E900000E000210846FFF74DFE3855601CC4B233
:101EA000AC42F1DBFFF7D6FEBDE8F08171B581B041
:101EB0000024002661480078401C604908700846EC
:101EC00000780A2190FBF1F201FB120018B15B4887
:101ED00000780A2867DA012201A90220FFF7BAFF79
:101EE0009DF8040000F00F0000287ED09DF804004B
:101EF00000F00F00062878DA9DF8040000F00F01CA
:101F0000FF208840C5B2E843C0B240F0C0004C4951
:101F100081F8200000245AE0494890F8200001216F
:101F2000A1400840F0B3474931F814000422694643
:101F3000FFF790FF424890F8300000F00100C0B178
:101F40009DF801009DF8001001F00F0100EB012049
:101F50003B49163121F814009DF803009DF802104A
:101F600001F00F0100EB012135480C3020F814106E
:101F70001DE09DF801009DF8001001F00F0100EB3D
:101F80000120C0F5F07081B22D480C3020F81410FB
:101F90009DF803009DF8021001F00F0100EB0121F4
:101FA000274801E011E020E0163020F814109DF8D9
:101FB000000000F0F000802807D0002120481630F3
:101FC00020F814100A3820F81410601CC4B2052C34
:101FD000A2DB01261A48808920B91948C08A08B9AD
:101FE000002001900020154908709DF8040000F0C1
:101FF0001F00D0B9124890F8200000F0800040B1D6
:102000000F4890F8200020F080000D4981F8200052
:102010000BE04FF6FF700A498881C882084690F8A5
:10202000200000F0E00081F8200004480078F0284B
:1020300002DD0A200149087030467CBD38000020CE
:102040003C000020CABF00082DE9F04105460E46BD
:1020500017464FF00008FFF7D7FD7020FFF7A2FDED
:10206000FFF71CFEE8B2FFF79DFDFFF717FE002407
:102070000BE0305DFFF796FDFFF710FE8046B8F1EC
:10208000000F00D003E0601CC4B2BC42F1DB00BF13
:10209000FFF7E0FD4046BDE8F0812DE9F041024642
:1020A00000250026002000230024002791F803C00B
:1020B0000CF00F0591F803C00CF0100CBCF1000FF0
:1020C00003D091F802C04CEA050591F800C0BCF1BC
:1020D000000F31D0146800202BE04FF0010C0CFAF7
:1020E00000F3B1F800C00CEA03069E4220D1830041
:1020F0004FF00F0C0CFA03F7BC4305FA03FC4CEA53
:10210000040491F803C0BCF1280F06D14FF0010C74
:102110000CFA00FCC2F814C00AE091F803C0BCF14C
:10212000480F05D14FF0010C0CFA00FCC2F810C0AA
:10213000401C0828D1D31460B1F800C0BCF1FF0FD7
:1021400034DD546800202EE000F1080C4FF0010847
:1021500008FA0CF3B1F800C00CEA03069E4221D144
:1021600083004FF00F0C0CFA03F7BC4305FA03FC95
:102170004CEA040491F803C0BCF1280F05D100F12A
:10218000080C08FA0CF8C2F8148091F803C0BCF1EE
:10219000480F07D100F1080C4FF0010808FA0CF8BD
:1021A000C2F81080401C0828CED35460BDE8F081EE
:1021B0000246002093680B400BB1012000E0002094
:1021C0007047416170470161704700000EB5012101
:1021D000802001F0CDFA4FF40060ADF8000010202F
:1021E0008DF8030003208DF8020069463A48FFF796
:1021F00054FF02213848FFF7E6FF4FF48060ADF846
:10220000000048208DF8030069463348FFF745FF7A
:102210004FF480613048FFF7D6FFFFF739FC00200C
:102220002E4908600A2006F047F801202C49C1F821
:10223000AC010A2006F040F84FF48060ADF80000D1
:1022400028208DF8030069462348FFF726FF4FF446
:1022500080612148FFF7B5FF642006F02DF80422C5
:1022600001A948F2401000F051F800208DF8080054
:1022700001A91CA0FEF754F81DA101A8FEF73EFA23
:1022800040BB02208DF80400012201A948F2400061
:1022900000F09CF9012201A948F2470000F036F84D
:1022A0009DF80400602807DA9DF8041012A0FEF7DC
:1022B00037F8012000F05CF90A2005F0FDFF00204E
:1022C0008DF80400012201A948F2400000F07EF9D7
:1022D00000200EBD0120FCE7001C0140AC81234220
:1022E000008023424354502049443A25730D0A008C
:1022F000393134370000000044656661756C742024
:102300005665723A25640D0A000000002DE9F0417F
:1023100005460F461646FFF777FC2820FFF742FCDC
:10232000FFF7BCFC2812FFF73DFCFFF7B7FCE8B253
:10233000FFF738FCFFF7B2FCFFF766FC2920FFF738
:1023400031FCFFF7ABFC00240BE0711EA14201D071
:10235000012100E000210846FFF7ECFB3855601C26
:10236000C4B2B442F1DBFFF775FCBDE8F0810000B8
:1023700071B583B00024002679480078401C784964
:102380000870084600780A2190FBF1F201FB120068
:1023900018B1734800780A287EDA012203A948F2AE
:1023A0004E10FFF7B3FF9DF80C0000F0800068B1FD
:1023B0009DF80C0000F00F00062807DA00200190BD
:1023C000012201A948F24E1000F000F99DF80C001E
:1023D00000F00F0000285FD09DF80C0000F00F0007
:1023E0000628D9DA9DF80C0000F00F01FF20884084
:1023F000C0B201905B4890F820509DF80400C043A3
:10240000C0B240F0C000574981F8200008468189D9
:102410008182C18AC183002446E0524890F820009E
:102420000121A140084020B34F4931F81400042293
:1024300002A9FFF76BFF4B4890F8300000F0010055
:10244000C0B19DF808009DF8091000EB012081B291
:102450004448163020F814109DF80A009DF80B101F
:1024600000EB0120C0F5487081B23E480C3020F8E6
:10247000141017E09DF808009DF8091000EB0120EA
:1024800081B238480C3020F814109DF80A009DF8ED
:102490000B1000EB012000E036E081B2314816302D
:1024A00020F81410601CC4B2052CB6DB01262D48A0
:1024B00080892E490988884205DC2A48C08A2B4930
:1024C000498888421DDD9DF80C0000F00F000128AE
:1024D0000ADD2448C089234988810846008BC882C8
:1024E00000201F4908700FE01E48808A1D4988811E
:1024F0000846C08BC88280200390084680F8205090
:1025000002E00020164908709DF80C0000F08F00D2
:1025100080281AD1134890F8200000F0800040B1C4
:10252000104890F8200020F080000E4981F820002B
:102530000BE04FF6FF700B498881C882084690F87F
:10254000200000F0E00081F8200005480078F02825
:1025500002DD0A2002490870304604B070BD000058
:10256000390000203C0000208CC00008240300201B
:1025700038B50546002400208DF800008DF8015084
:1025800000BF09E09DF800000F49095D0844C0B292
:102590008DF80000601CC4B2B82CF3D39DF8000085
:1025A000C043401CC0B28DF80000B822064948F272
:1025B000470000F00BF80222694648F2FF0000F0E5
:1025C00005F8002038BD0000D4BF00082DE9F04117
:1025D00004460E4617464FF00008FFF715FB28206B
:1025E000FFF7E0FAFFF75AFB2012FFF7DBFAFFF7DD
:1025F00055FBE0B2FFF7D6FAFFF750FB00250BE0E2
:10260000705DFFF7CFFAFFF749FB8046B8F1000F86
:1026100000D003E0681CC5B2BD42F1DB00BFFFF78C
:1026200019FB4046BDE8F0812DE9F05F82460F4678
:1026300014462046E21704EB5272D2102146E317EB
:1026400004EB5373DB10A4EBC3030BB1012300E0D5
:1026500000231A44624302F0FF099AF800600AF16D
:10266000010082460578812E05DB402D03DBFF2D1E
:1026700001D0FF2E0DD14FF0000B06E0002007F82F
:10268000010B0BF1010000F0FF0BCB45F6DBBDE8C1
:10269000F09F7F2D03DAA5F14000C5B202E0A5F15D
:1026A0004100C5B2A6F18100C6B2BE2000FB0650B3
:1026B00000FB09F80C2C04D0102C0CD0182C1ED1C7
:1026C00013E01048D0F8090000EB08014A463846EC
:1026D00002F088FE13E00B48D0F8110000EB08016F
:1026E0004A46384602F07EFE09E00648D0F8190056
:1026F00000EB08014A46384602F074FE00BF00BFF6
:1027000000BFC4E7C0B4002000BFFEE710B5002042
:102710000F4908600F48006820F070400D490860BC
:102720000846006840F04050086000200A49C1F89F
:102730009C01022005F0E6FD012005490860022009
:1027400005F0E0FD00200449C1F8980110BD00002B
:1027500098812142000C01400080214208B50121EE
:10276000082001F005F8C020ADF8000010208DF819
:10277000030003208DF8020069460448FFF78DFC32
:10278000C0210248FFF71FFD08BD0000000C0140FA
:1027900010B500200F4908600F48006820F0704015
:1027A0000D4908600846006840F04050086001206C
:1027B0000A49C1F89C01022005F0A4FD0120054949
:1027C0000860022005F09EFD00200449C1F8980130
:1027D00010BD000098812142000C01400080214280
:1027E00070B5054600241748006820F07040154970
:1027F00008600846006840F000400860002616E0C7
:10280000002011490860022005F07CFD01200F49DD
:10281000C1F898016006040E0B487C38006808B1C6
:10282000601CC4B2012005F06DFD701CC6B2082EFC
:10283000E6DB15B9FFF7ACFF01E0FFF767FF2046C5
:1028400070BD0000000C01409881214200802142AF
:1028500070B504461848006820F0704016490860BA
:102860000846006840F040500860002013490860A6
:1028700000251EE0E00920B101201049091D086073
:1028800003E000200D49091D08606006040E0220C7
:1028900005F038FD012009490860022005F032FDED
:1028A00000200749C1F89801022005F02BFD681CA3
:1028B000C5B2082DDEDB70BD000C014098812142BD
:1028C0000080214210B50F48006820F070400D498B
:1028D00008600846006840F04050086001200A493E
:1028E00008600A49C1F89801042005F00BFD00209A
:1028F00005490860042005F005FD00200349C1F8E2
:10290000980110BD000C01409C81214200802142B1
:1029100010B50F48006820F070400D490860084667
:10292000006840F04050086000200A4908600A49E9
:10293000C1F89C01042005F0E5FC01200549086070
:102940000549C1F89C01042005F0DCFC10BD000025
:10295000000C0140988121420080214210B50024E2
:102960001448006820F0704012490860084600686A
:1029700040F00040086001200F49086005F0C2FCEB
:1029800001200E49C1F8980105F0BCFC07E0601C6D
:10299000C4B2FA2C03DDFFF7BBFF012010BD0648CF
:1029A000803800680028F2D10349091F086000BF81
:1029B000F4E70000000C01409C812142008021428C
:1029C00008B50121442000F0D3FE1C20ADF8000022
:1029D00048208DF8030069460648FFF75EFB01209A
:1029E000ADF8000028208DF8030069460248FFF783
:1029F00054FB08BD001801400008014010B5044612
:102A000014B101202C4908702B480078002837D0D9
:102A100010212A48FFF7CCFB78B108212748FFF79F
:102A2000C7FB50B104212548FFF7C2FB28B10121A3
:102A30002348FFF7BDFB012822D10A2005F03CFC0A
:102A400000201D49087010211C48FFF7B1FB08B990
:102A5000012010BD08211948FFF7AAFB08B9022080
:102A6000F7E704211548FFF7A3FB08B90320F0E7B7
:102A700001211348FFF79CFB01281BD10420E8E744
:102A800010210E48FFF794FB012813D108210B48B1
:102A9000FFF78EFB01280DD104210848FFF788FBC2
:102AA000012807D101210648FFF782FB10B9012058
:102AB000014908700020CCE72200002000180140E6
:102AC0000008014070B50446002617480588408874
:102AD00045431548808846F60401884216D11248BD
:102AE0008079012812D100200F4988712A2048815D
:102AF0002B2088810021084600F016FA01200A499F
:102B000088712B2048812A20888103E00021084613
:102B100000F00AFA00F0FAFB002602E00348048005
:102B2000761CAE42FAD370BD240300200008006C6E
:102B30002DE9FF4F84B081468A4600200390029021
:102B40000698A0EB09050798A0EB0A06CDF80490BB
:102B5000CDF800A0002D01DD012705E00DB900270B
:102B600002E04FF0FF376D42002E02DD4FF001080A
:102B700006E016B94FF0000802E04FF0FF38764249
:102B8000B54201DD2C4600E034464FF0000B21E059
:102B9000009A91B2019A90B200F022F8039828446A
:102BA00003900298304402900398A04205DD0398F8
:102BB000001B03900198384401900298A04205DD63
:102BC0000298001B02900098404400900BF1010015
:102BD0001FFA80FB601C8345DADD08B0BDE8F08F8A
:102BE00030B504460D462946204600F09DF900F018
:102BF0008DFB024800880249088030BD2400002077
:102C00000008006CF0B504460D4616461F462B46DC
:102C1000324629462046FFF78BFF3B46224629468F
:102C20002046FFF785FF3B46324639462046FFF7F0
:102C30007FFF3B46324629463046FFF779FFF0BD1D
:102C40002DE9F04306460F469046002445460320F2
:102C5000A0EB48093CE07A1B91B2321990B2FFF721
:102C6000BFFF3A1B91B2721990B2FFF7B9FF3A1940
:102C700091B2721990B2FFF7B3FF7A1991B232197B
:102C800090B2FFF7ADFF7A1991B2321B90B2FFF705
:102C9000A7FF3A1991B2721B90B2FFF7A1FF7A1BFE
:102CA00091B2321B90B2FFF79BFF3A1B91B2721B9D
:102CB00090B2FFF795FF641CB9F1000F03DAA00092
:102CC000801D814404E0601B80000A3081446D1E39
:102CD000AC42C0DDBDE8F08330B503460C46154676
:102CE0005A48808849F24131884205D05748808847
:102CF00045F21031884214D15449488900F000FB54
:102D0000181200F0F7FAD8B200F0F4FA4F498889A7
:102D100000F0F6FA201200F0EDFAE0B200F0EAFA64
:102D20008CE04A48808845F21051884220D14749BA
:102D3000488900F0E5FA181200F0DCFA43494989A5
:102D4000491C88B200F0DCFAD8B200F0D3FA3F494F
:102D5000888900F0D5FA201200F0CCFA3B49898925
:102D6000491C88B200F0CCFAE0B200F0C3FA65E08A
:102D70003648808841F66311884228D133488079EB
:102D800020B932480088401EC01A83B22F494889B2
:102D900000F0B6FA181200F0ADFAD8B200F0AAFAB4
:102DA000181200F0A7FAD8B200F0A4FA27498889CF
:102DB00000F0A6FA201200F09DFAE0B200F09AFAB4
:102DC000201200F097FAE0B200F094FA36E01F48C3
:102DD000808846F6040188421DD11C48807901286C
:102DE00004D11A480088401EC01A83B21749488986
:102DF00000F086FA181200F07DFAD8B200F07AFAE4
:102E00001249888900F07CFA201200F073FAE0B2CF
:102E100000F070FA12E00D488079012804D10B48C7
:102E20000088401EC01A83B208494889194600F03C
:102E300077FA06498889214600F072FA034800892A
:102E400003490880881C058030BD00002403002051
:102E5000FE07006C2DE9FC4F05460E4617469846C6
:102E6000DDF82C90002001902748808846F6040168
:102E7000884229D124488079012825D1AB4635469E
:102E800021480088C01B401E86B247461E48008865
:102E9000A0EB0B00401E1FFA80F800201A49887131
:102EA0002A2048812B20888143463A4631462846CD
:102EB000CDF80090FFF7CEFF0120134988712B2039
:102EC00048812A2088811CE0781B401C80B2019038
:102ED000344614E02146284600F026F800F016FAA1
:102EE0004FF0000A06E00948A0F800900AF101003E
:102EF0001FFA80FA01988245F5DB601C84B24445D4
:102F0000E8DDBDE8FC8F0000240300200008006C11
:102F100010B50246012000E050430B00A1F101046E
:102F2000E1B2F9D110BD000010B503460C46674868
:102F3000808849F24131884205D06448808845F252
:102F40001031884214D16149488900F0D9F918122A
:102F500000F0D0F9D8B200F0CDF95C49888900F0D2
:102F6000CFF9201200F0C6F9E0B200F0C3F9ABE0EF
:102F70005648808846F6040188421DD1534880791E
:102F8000012804D151480088401EC01A83B24F491D
:102F9000488900F0B5F9181200F0ACF9D8B200F089
:102FA000A9F94A49888900F0ABF9201200F0A2F98A
:102FB000E0B200F09FF987E04448808841F6631151
:102FC000884247D141488079A8B940480088401ECE
:102FD000C01A83B23D49488900F092F9002000F000
:102FE00089F9002000F086F9181200F083F9D8B2B0
:102FF00000F080F916E03549488900F081F918128F
:1030000000F078F9D8B200F075F930490988491E06
:10301000C1F30F2000F06EF92C490978491EC8B29F
:1030200000F068F92949888900F06AF9201200F057
:1030300061F9E0B200F05EF924494988491EC1F304
:103040000F2000F057F921498978491EC8B200F0D5
:1030500051F939E01D48808845F21051884220D14D
:103060001A49488900F04CF9181200F043F9174941
:103070004989491C88B200F043F9D8B200F03AF906
:103080001249888900F03CF9201200F033F90F4909
:103090008989491C88B200F033F9E0B200F02AF9BE
:1030A00012E00A488079012804D108480088401EAF
:1030B000C01A83B205494889194600F031F903491D
:1030C0008889214600F02CF910BD0000240300205F
:1030D0002DE9F84F80460E4617461C46B34620465B
:1030E000E31704EB5373DB1021464FEAE47C04EB57
:1030F0005C7C4FEAEC0CA4EBCC0CBCF1000F02D0D2
:103100004FF0010C01E04FF0000C6344224604EB49
:10311000D27C4FEA6C0C03FB0CF3DBB20093A7F1FB
:103120002000C7B2002556E00C2C07D107EB470062
:103130002B4901EB800010F8059013E0102C05D10D
:10314000284800EB071010F805900BE0182C07D169
:1031500007EBC700244901EB800010F8059001E05F
:10316000BDE8F88F4FF0000A2FE009F0800030B181
:103170001E48028831464046FFF7AEFD07E00A9838
:1031800028B91B48028831464046FFF7A5FD4FEAA3
:1031900049604FEA1069701C86B216484088B042F8
:1031A00000DCDDE7A6EB0B00A0420AD15E4608F189
:1031B00001001FFA80F80F480088404500DCCFE787
:1031C00006E00AF1010000F0FF0ABAF1080FCCDBBB
:1031D00000BF681CC5B200988542A5DB00BFBFE7F1
:1031E0000AA800087EAC00086EB200082400002087
:1031F00026000020240300202DE9FF4F81B0074660
:1032000091461E460E9D4FF0000A002439E0301B07
:10321000401EC1B20A20FFF77BFEB9FBF0F00A2185
:10322000B0FBF1F201FB1208BAF1000F16D1701ECB
:10323000A04213DDB8F1000F0ED10020AB4605EB24
:10324000DB71491001FB0471009088B22B462022EB
:103250000299FFF73DFF12E04FF0010A0020AB4654
:1032600005EBDB71491001FB0471009088B208F195
:103270003001CAB22B460299FFF72AFF00BF601C3B
:10328000C4B2B442C3DB05B0BDE8F08F2DE9F84706
:1032900004460D4690469946DDE9096704F0FF0AA9
:1032A00008EB04001FFA80F809EB05001FFA80F90B
:1032B00016E0444502DB5446A81985B24D4500DBB3
:1032C00014E0002000903A78334629462046FFF764
:1032D000FFFE304606EBD07104EB61018CB27F1C1F
:1032E00038787E2802DC38782028E2DA00BFBDE892
:1032F000F887000001490880704700000008006C52
:103300000149088070470000FE07006C02480089F0
:10331000024908807047000024030020FE07006C6B
:10332000024A1080921C118070470000FE07006C5A
:1033300000BFFEE77047000070B5002100230F2298
:10334000C47804B3154C246804F4E064C4F5E06464
:10335000210AC1F10403CA40447804FA03F18478D5
:103360001440214309010E4C0678A155047804F05D
:103370001F050124AC4005786D11AD0005F1E02575
:10338000C5F8004109E0047804F01F050124AC40B1
:10339000044D0678761145F8264070BD0CED00E02E
:1033A00000E400E080E100E002490143024A1160CC
:1033B000704700000000FA050CED00E01CB500208D
:1033C00001900121802000F0D3F94FF40060ADF8A6
:1033D000000010208DF8030003208DF802006946DC
:1033E0001D48FEF75AFE02211B48FEF7ECFE4FF483
:1033F0008060ADF8000048208DF80300694616484B
:10340000FEF74BFE4FF480611348FEF7DCFEFEF73B
:103410003FFB002011490860642004F04DFF0120AB
:103420000F49C1F8AC01642004F046FF012000F010
:1034300041F9012201A94FF4506000F019F89DF8FC
:10344000041008A0FCF76CFF9DF80400802801D14F
:1034500000201CBD0120FCE7001C0140AC81234280
:10346000008023424354502049443A25780D0A00F5
:103470002DE9F04105460F461646FEF7C5FBB22082
:10348000FEF790FBFEF70AFC2812FEF78BFBFEF717
:1034900005FCE8B2FEF786FBFEF700FCFEF7B4FB86
:1034A000B320FEF77FFBFEF7F9FB00240BE0711E53
:1034B000A14201D0012100E000210846FEF73AFBBD
:1034C0003855601CC4B2B442F1DBFEF7C3FBBDE863
:1034D000F08100002DE9F14F82B04FF0000AD34691
:1034E0006C480078401C6B490870084600780A2137
:1034F00090FBF1F201FB120018B1664800780A282F
:103500007EDA012202A90020FFF7B2FF9DF8080031
:1035100000F01F00002873D09DF8080000F01F0085
:1035200040F0C0005C4981F820004FF0000A76E0CE
:10353000594890F82000012101FA0AF108400028BA
:1035400069D0564931F81A00042201A9FFF790FF0B
:10355000514890F8300000F0010078B39DF8071052
:103560009DF8062001EB022006F0DDFA06464C4AE3
:103570004C4B06F03FFB044606F0A8FA81B24648E1
:10358000163020F81A109DF805109DF8042001EB64
:10359000022006F0C8FA0646434A444B06F02AFBCE
:1035A00080460022424B06F059FC044606F08EFA93
:1035B00081B239480C3020F81A102CE0FFE79DF852
:1035C00007109DF8062001EB022006F0ACFA064633
:1035D000334A344B06F00EFB044606F077FA81B20C
:1035E0002D480C3020F81A109DF805109DF8042085
:1035F00001EB022006F097FA06462B4A2B4B00E01F
:103600001DE006F0F7FA044606F060FA81B222489F
:10361000163020F81A100AF1010000F0FF0ABAF182
:10362000050F85DB4FF0010B1B48808920B91A4834
:10363000C08A08B9002002900020164908709DF841
:10364000080000F01F00D0B9134890F8200000F0E7
:10365000800040B1104890F8200020F080000E4912
:1036600081F820000BE04FF6FF700B498881C8827B
:10367000084690F8200000F0E00081F8200005489E
:103680000078F02802DD0A20024908705846BDE89B
:10369000FE8F00003A0000203C00002096C0000889
:1036A0007B14AE47E17AD43FD881734694F6D23F7B
:1036B0000000894038B50446002000900CB18020FD
:1036C0000090012269464FF4506000F001F838BDC7
:1036D0002DE9F04104460E4617464FF00008FEF76C
:1036E00093FAB220FEF75EFAFEF7D8FA2012FEF740
:1036F00059FAFEF7D3FAE0B2FEF754FAFEF7CEFA23
:1037000000250BE0705DFEF74DFAFEF7C7FA804624
:10371000B8F1000F00D003E0681CC5B2BD42F1DB78
:1037200000BFFEF797FA4046BDE8F0817047000001
:1037300029B1064AD2690243044BDA6104E0034A24
:10374000D2698243014BDA617047000000100240E9
:1037500029B1064A12690243044B1A6104E0034A84
:1037600012698243014B1A61704700000010024049
:1037700029B1064A92690243044B9A6104E0034A64
:1037800092698243014B9A61704700000010024029
:1037900029B1064AD2680243044BDA6004E0034AC6
:1037A000D2688243014BDA6070470000001002408B
:1037B00030B500210022002400232D4D6D6805F056
:1037C0000C0121B1042905D0082923D105E0294D98
:1037D000056022E0274D05601FE0254D6D6805F46A
:1037E0007012234D6D6805F48034022505EB92427A
:1037F0001CB9214D554305600BE01D4D6D6805F466
:1038000000351DB11C4D5543056002E0194D55436F
:10381000056002E0174D056000BF00BF144D6D68E4
:1038200005F0F0010909154D6B5C0568DD40456048
:103830000F4D6D6805F4E061090A104D6B5C456839
:10384000DD4085600A4D6D6805F46051C90A0B4D75
:103850006B5C4568DD40C560054D6D6805F4404111
:10386000890B074D6B5CC568B5FBF3F5056130BD91
:103870000010024000127A0000093D007400002090
:1038800084000020014988637047000000800140E7
:1038900001460020034A526B0A400AB1012000E0B1
:1038A000002070470080014010B500F017F810BDEF
:1038B0000021094B02689A601A46D1686FF30A0129
:1038C000D0E901231A43C3681A4303691A43114319
:1038D000014AD160704700000080014010B549489E
:1038E000406B00F4807070B347480078012814D111
:1038F0000020464908600C20486040208860002075
:10390000C8604FF4806008610846FFF7D1FF0C20C3
:10391000FEF7F6F93E49087002E000203C490870C5
:103920003848806B40F48070364988630846C06B25
:103930004CF23A3188433349C86301203549087055
:103940003348007810BDFFE70220FFF7A1FF68B100
:103950000220FFF797FF2B48C06B4CF23A318843A7
:103960002849C86302202A490870EBE70820FFF7BE
:103970008FFF68B10820FFF785FF2248C06B4CF22B
:103980003A3188431F49C863042021490870D9E7A8
:103990002020FFF77DFF68B12020FFF773FF194853
:1039A000C06B4CF23A3188431649C8630620184967
:1039B0000870C7E71020FFF76BFF68B11020FFF712
:1039C00061FF1048C06B4CF23A3188430D49C8631F
:1039D00005200F490870B5E74FF40070FFF758FF56
:1039E00070B14FF40070FFF74DFF0648C06B4CF20A
:1039F0003A3188430349C863072005490870A1E7A5
:103A000000209FE70080014031000020500300208B
:103A1000320000203300002070B50546002405E088
:103A2000601CC4B2C82C01DD002070BD02210E480C
:103A300000F01CF80028F3D029460B4800F022F8CB
:103A4000002405E0601CC4B2C82C01DD0020ECE7B6
:103A50000121054800F00AF80028F3D0024800F0E0
:103A60000EF8C0B2E1E70000003800400246002036
:103A700013890B400BB1012000E000207047014684
:103A80008889704781817047704710B500F002F84F
:103A900010BD00000CB50020019000903348006874
:103AA00040F480303149086000BF3048006800F4BD
:103AB000003000900198401C0190009818B90198BE
:103AC000B0F5A06FF1D12948006800F4003010B1C2
:103AD0000120009001E0002000900098012843D1CF
:103AE0002348006840F0100021490860084600683B
:103AF00020F0030008600846006840F002000860FB
:103B00001A484068194948600846406848600846B5
:103B1000406840F4806048600846406820F47C10AB
:103B200048600846406840F4E8104860084600686D
:103B300040F08070086000BF0C48006800F0007022
:103B40000028F9D00948406820F003000749486080
:103B50000846406840F00200486000BF03484068E3
:103B600000F00C000828F9D10CBD00000010024044
:103B7000002002402DE9FF4F93B007460D461C463A
:103B8000AA462046E21704EB5272D2102146E317F0
:103B900004EB5373DB10A4EBC3030BB1012300E070
:103BA00000231A44624302F0FF0B0C2C06D0102CA9
:103BB00004D0182C02D017B0BDE8F08F224601A91E
:103BC0001598FEF731FD00262FE001A810F80680B9
:103BD0004FF0000923E008F0800030B1154802885A
:103BE00029463846FFF778F807E0209828B91248A8
:103BF000028829463846FFF76FF84FEA48604FEAD7
:103C00001068681C85B2A5EB0A00A04203D1554696
:103C1000781C87B206E009F1010000F0FF09B9F154
:103C2000080FD8DB00BF701CC6B25E45CDDB00BFFD
:103C3000C1E7000024000020260000202DE9FE4FEF
:103C400007460E4691469A46DDE90D4B0C9DB84657
:103C50000296002001904CE0019870BB28788028E3
:103C600002DD0120019044E004EBD47108EB09026D
:103C7000A2EB6101B94202DA301986B247460298D6
:103C80005044001BB04200DA36E028780D2804D1F9
:103C9000301986B247466D1C07E0CDF800B02A788F
:103CA000234631463846FFF713FA6D1C204604EBD5
:103CB000D07107EB61018FB21BE0FFE7002001909C
:103CC00008EB0900001BB84202DA301986B24746F9
:103CD00002985044001BB04200DA0DE023462A4609
:103CE00031463846CDF800B0FFF744FFAD1C381917
:103CF00087B228780028AFD100BFBDE8FE8F000052
:103D00002DE9FE430746894615461C46DDF8288006
:103D100000262846FCF7D2FC86B2204604EBD07180
:103D2000491071438EB246450BDD0120CDE90054A8
:103D300002900E484388028849463846FFF77EFFC6
:103D400011E0A8EB060000EBD071C1F34F06012093
:103D50000649CDE9005402904B880A88F11988B2CF
:103D60004946FFF76BFFBDE8FE83000024030020F7
:103D7000042808D14FF0E021096941F004014FF017
:103D8000E022116107E04FF0E021096921F0040110
:103D90004FF0E022116170477047000010B51348E2
:103DA000006840F001001149086008464068104969
:103DB00008400E494860084600680E4908400B4913
:103DC00008600846006820F48020086008464068C3
:103DD00020F4FE0048604FF41F008860FFF755FE96
:103DE0004FF000600449086010BD00000010024060
:103DF0000000FFF8FFFFF6FE08ED00E010B501211E
:103E0000104800F0D7F800281AD00F480078401E5C
:103E10000D490870084601780CA0FCF781FAC8200B
:103E200004F04AFA0848007830B910A0FCF778FA94
:103E30000021044800F0A6F80121024800F09FF894
:103E400010BD000000040040000000200D0AB5B1C4
:103E5000C7B0CAFDD6B5CEAA25642CD5FDD4DAB537
:103E6000B9BCC6CAB10D0A0D0A0000000D0AB5B1F1
:103E7000C7B0CAFDD6B5CEAA302CBCC6CAFDCDEAA5
:103E8000B1CF0D0A0D0A00007FB505460C46012191
:103E90000220FFF74DFCADF80850ADF804400020BB
:103EA000ADF80A00ADF8060001A90C4800F0A0F832
:103EB00001221146094800F08EF81D208DF80000FF
:103EC00000208DF8010003208DF8020001208DF8FC
:103ED00003006846FFF730FA7FBD00000004004091
:103EE00010B501210A4800F065F801280AD10949F6
:103EF000086980470021064800F078F864210448EA
:103F000000F072F80121024800F039F810BD0000FD
:103F100000080040E00000207FB505460C46012166
:103F20002020FFF705FCADF80450ADF8004000205C
:103F3000ADF80600ADF8020069460E4800F058F8EA
:103F4000012211460B4800F046F80121094800F013
:103F500019F837208DF80C0000208DF80D00022094
:103F60008DF80E0001208DF80F0003A8FFF7E4F98B
:103F70007FBD000000140040CA4302827047CA435C
:103F80000282704721B1028842F00102028004E0FF
:103F900002884FF6FE731A40028070470146888CF3
:103FA000704702460020138A0B400BB1012000E04D
:103FB0000020704730B50246002000230024158AF7
:103FC00005EA0103958905EA010413B10CB101204A
:103FD00000E0002030BD1AB183890B43838102E0E9
:103FE00083898B43838170478185704781847047C3
:103FF000002202881D4B98420ED01D4B98420BD0D8
:10400000B0F1804F08D01B4B984205D01A4B984214
:1040100002D01A4B984204D14FF68F731A404B8846
:104020001A43174B984207D0164B984204D04FF6CC
:10403000FF431A40CB881A4302808B8883850B8804
:1040400003850A4B98420BD0094B984208D00E4B7F
:10405000984205D00D4B984202D00D4B984201D1A9
:104060000B7A03860123838270470000002C0140F5
:10407000003401400004004000080040000C0040F3
:104080000010004000140040004001400044014086
:10409000004801402DE9FC5F04460D4617461E46C8
:1040A000DDE90EABDDE90C894FF478405749088013
:1040B00057A01021CDE90010564843880288A0215E
:1040C0002820FFF7E3F854A01021CDE90010514853
:1040D00043880288A0217820FFF7D8F84FA010214C
:1040E000CDE900104B4843880288B4212820FFF70F
:1040F000CDF84BA01021CDE9001046484388028836
:10410000B4217820FFF7C2F846A01021CDE90010B5
:10411000404843880288C8212820FFF7B7F842A00A
:104120001021CDE900103B4843880288C82178203F
:10413000FFF7ACF83DA01021CDE9001035484388C9
:104140000288DC212820FFF7A1F839A01021CDE951
:104150000010304843880288DC217820FFF796F869
:1041600034A01021CDE900102A4843880288F021AC
:104170002820FFF78BF8102004232246A02100906E
:104180004020FFF739F8102004232A46A021009090
:104190009020FFF731F8102004233A46B421009014
:1041A0004020FFF729F8102004233246B421009064
:1041B0009020FFF721F8102004234246C8210090E8
:1041C0004020FFF719F8102004234A46C821009028
:1041D0009020FFF711F8102004235246DC210090B4
:1041E0004020FFF709F8102004235A46DC210090F4
:1041F0009020FFF701F8102003230090F0216020A9
:10420000109AFEF7F9FFBDE8FC9F00002400002093
:1042100078313A002403002079313A0078323A00AC
:1042200079323A0078333A0079333A0078343A00F8
:1042300079343A006661632069733A0000B597B03B
:10424000002012900B9012901F20FE4908804FF61C
:10425000FF70FD490880FEF735FC4FF47840F949BE
:1042600008804FF6FF70FEF72DFC0020F54908800E
:10427000F648006810216423A022CDE9001028210F
:104280000846FFF703F84FF478421421084600F07F
:1042900003FC0020EE4981F820004862CFE3EC489F
:1042A00040680A9001200A998847E94890F8200060
:1042B00000F0C00040286FD100200B90E44890F837
:1042C000200020F04000E24981F820000846818962
:1042D00013AA129822F82010DD48C18A129802EB26
:1042E000800041801298401CC0B2129012980128A0
:1042F00006D0022815D0032829D0042810D141E087
:104300004FF6FF721421084600F0C6FBD148008822
:10431000143880B24FF4784214210A9000F0BCFBAC
:104320007DE3CC480088143880B24FF6FF72142128
:104330000A9000F0B1FBC7484088143880B24FF4AF
:10434000784201460A90142000F0A6FB67E3C148BA
:104350004088143880B24FF6FF7201460A9014204C
:1043600000F09AFBBB484088143880B20A90B948E4
:104370000088143880B24FF4784209900A9900F00E
:104380008BFB4CE3BDF84C00BDF85010401A0A906E
:10439000002802DB0A9802E042E30A9840420F90AC
:1043A000BDF84E1013A8C088081A0A90002801DB37
:1043B0000A9801E00A9840420E900F9840430F90EF
:1043C0000E9840430E90DDE90E100844059005F06C
:1043D000C1FBCDE9060104F016F9CDE9080105F0AD
:1043E00075FB80B21190BDF85400BDF85810401A0A
:1043F0000A90002801DB0A9801E00A9840420F90D9
:1044000013A84189C089081A0A90002801DB0A987C
:1044100001E00A9840420E900F9840430F900E988A
:1044200040430E90DDE90E100844059005F092FB24
:10443000CDE9060104F0E7F8CDE9080105F046FBF7
:1044400080B21090109806F089F80990119806F043
:1044500085F80890099905F06BFF0A9005F0DAFEDF
:10446000CDE90C014FF066327B4BDDE90C0105F024
:1044700085FB0AD3794A7A4BDDE90C0105F0B8FCDB
:1044800003D3119808B11098F0BB00201290714826
:104490004088143880B20A906E480088143880B280
:1044A0004FF6FF7209900A9900F0F6FA4FF478423D
:1044B0001421084600F0F0FA00226A4BDDE90C01F5
:1044C00005F098FBCDE9080105F000FB80B213A9C7
:1044D0000A90C989BDF8582013AB5B89CDE9013238
:1044E000CDE90310BDF85400009013A8C0880990CE
:1044F000BDF850000890BDF84E000790BDF84C0084
:10450000069007A90EC900E002E0FFF7C3FD96E29E
:10451000BDF84C00BDF85410401A0A90002801DB89
:104520000A9801E00A9840420F90BDF84E1013A877
:104530004089081A0A90002801DB0A9801E00A98CD
:1045400040420E900F9840430F900E9840430E90BB
:10455000DDE90E100844059005F0FCFACDE90601EE
:1045600004F051F8CDE9080105F0B0FA80B21190DD
:10457000BDF85000BDF85810401A0A90002801DB21
:104580000A9801E00A9840420F9013A8C188C08998
:10459000081A0A90002801DB0A9801E00A984042B4
:1045A0000E900F9840430F900E9840430E90DDE917
:1045B0000E100844059005F0CDFACDE9060104F08F
:1045C00022F8CDE9080105F081FA80B21090109828
:1045D00005F0C4FF0990119805F0C0FF08900999F3
:1045E00005F0A6FE0A9005F015FECDE90C014FF08E
:1045F0006632194BDDE90C0105F0C0FA06D3174A03
:10460000174BDDE90C0105F0F3FB53D200201290AB
:1046100010484088143880B20A900E480088143838
:1046200080B24FF6FF7209900A9900F035FA4FF404
:1046300078421421084600F02FFA0022094BDDE9E8
:104640000C0111E02400002026000020A0C000087A
:104650003C000020240300206666EE3FCDCCCCCC8D
:10466000CCCCF03F0000594005F0C4FACDE9080178
:1046700005F02CFA80B213A90A90C989BDF8582018
:1046800013AB5B89CDE90132CDE90310BDF85400CD
:10469000009013A8C0880990BDF850000890BDF89C
:1046A0004E000790BDF84C00069007A90EC9FFF711
:1046B000F1FCC4E1BDF85000BDF85410401A0A9056
:1046C000002801DB0A9801E00A9840420F9013A8E5
:1046D000C1884089081A0A90002801DB0A9801E085
:1046E0000A9840420E900F9840430F900E98404316
:1046F0000E90DDE90E100844059005F02BFACDE987
:10470000060103F080FFCDE9080105F0DFF980B272
:104710001190BDF84C00BDF85810401A0A900028BE
:1047200001DB0A9801E00A9840420F90BDF84E1054
:1047300013A8C089081A0A90002801DB0A9801E032
:104740000A9840420E900F9840430F900E984043B5
:104750000E90DDE90E100844059005F0FBF9CDE957
:10476000060103F050FFCDE9080105F0AFF980B272
:104770001090109805F0F2FE0990119805F0EEFEE9
:104780000890099905F0D4FD0A9005F043FDCDE9A4
:104790000C014FF06632AC4BDDE90C0105F0EEF98F
:1047A00006D3AA4AAA4BDDE90C0105F021FB40D251
:1047B00000201290A7484088143880B20A90A5487B
:1047C0000088143880B24FF6FF7209900A9900F001
:1047D00063F94FF478421421084600F05DF9002295
:1047E0009D4BDDE90C0105F005FACDE9080105F066
:1047F0006DF980B213A90A90C989BDF8582013AB8E
:104800005B89CDE90132CDE90310BDF85400009079
:1048100013A8C0880990BDF850000890BDF84E005C
:104820000790BDF84C00069007A90EC9FFF732FCAF
:1048300005E1BDF85000BDF84C10401A089005F095
:1048400075FE0A90834800882838089005F06EFEAF
:1048500009900A9905F06CFD80494862BDF8500046
:10486000BDF84C100844059005F060FE06907B48AA
:10487000406A01460590069805F084FE0890754848
:104880000088069005F06AFE0790089905F046FF3B
:104890004FF08041099005F04BFD0A9005F00AFEAB
:1048A00000B26E49888513A84089BDF84E10401AA1
:1048B000089005F03BFE0A9066484088283808902A
:1048C00005F034FE09900A9905F032FD63498862CB
:1048D00013A84089BDF84E100844059005F026FE47
:1048E00006905E48806A01460590069805F04AFEEB
:1048F000089058484088069005F030FE07900899C7
:1049000005F00CFF4FF08041099005F011FD0A9071
:1049100005F0D0FD00B25149C8850846406A0890AC
:1049200005F0C8FD0990002801DB099801E009980D
:10493000404202280DDC4948806A089005F0BAFD23
:104940000A90002801DB0A9801E00A9840420228F8
:1049500042DD002012903F484088143880B20A900F
:104960003C480088143880B24FF6FF7209900A99CB
:1049700000F092F84FF478421421084600F08CF8C9
:1049800037A01021CDE90010324840880A90314804
:104990000088099002461A2128200A9BFEF776FC1F
:1049A0002E4890F8300008B9012000E000202B4983
:1049B00081F83000084690F8300030B190202D4941
:1049C0000870D0202C49087005E0D02029490870D3
:1049D00090202949087032E01F20284908804FF6AE
:1049E000FF70FEF76FF826A01021CDE900101948DE
:1049F00040880A9017480088099002466E212320BB
:104A00000A9BFEF743FC4FF47A7003F055FC00F06C
:104A100055FA4FF6FF70FEF755F817B000BD00BF0E
:104A20000A2003F049FC0B98401C80B20B900B98B5
:104A3000B0F57A7F02DD00F067F801E000BF2EE4F8
:104A400000BF00BFE9E700006666EE3FCDCCCCCCEE
:104A5000CCCCF03F24030020000059403C00002053
:104A60005450204E65656420726561646A75737484
:104A700021000000700000207100002024000020B0
:104A8000546F7563682053637265656E2041646A74
:104A9000757374204F4B210070B504460D461646C1
:104AA0001848068004F10D018AB2193988B22B46E4
:104AB0002946FEF73DF805F10D0083B2193881B2A1
:104AC00022462046FEF734F86A1C91B2621C90B26E
:104AD000FEF786F86A1C91B2621E90B2FEF780F86B
:104AE0006A1E91B2621C90B2FEF77AF86A1E91B209
:104AF000621E90B2FEF774F8062229462046FEF7A1
:104B00009FF870BD2400002010B53620FCF728FF68
:104B100004460A2C18D10E220C492820FCF70FFF5E
:104B20000A48243890F8300030B1902008490870C5
:104B3000D0200849087005E0D02005490870902071
:104B400004490870012010BD0020FCE7600000202F
:104B5000700000207100002008B55248808845F29E
:104B60001051884220D1FDF731FB18B94E484F490A
:104B7000486004E0FEF722FC4D484C4948604B4831
:104B800090F8300040F08000484981F83000084635
:104B900090F830004349897901F001010843434905
:104BA00081F83000002008BD3E48808841F663113E
:104BB000884218D1FDF7D6F83E483C49486008467F
:104BC00090F8300040F0800081F83000084690F8FE
:104BD00030003449897901F001010843334981F8F3
:104BE00030000020DFE701218820FEF7C1FD022010
:104BF000ADF8000010208DF8030003208DF80200AE
:104C000069462D48FDF749FA02212B48FDF7DBFAEA
:104C10000420ADF8000048208DF8030069462648BE
:104C2000FDF73BFA04212448FDF7CDFA4FF420604C
:104C3000ADF8000010208DF8030003208DF802006D
:104C400069461E48FDF729FA4FF420611B48FDF71D
:104C5000BAFA4FF48060ADF8000048208DF80300E8
:104C600069461648FDF719FA4FF480611348FDF7BD
:104C7000AAFA0E491631A1F10A0000F0A7F8FCF7D4
:104C80005AFEFFF741FF08B100208CE74FF6FF7096
:104C9000FDF718FFFFF7D2FAFFF736FF00BF01203C
:104CA00081E7000024030020712300083C0000205D
:104CB000D5340008AD1E0008000C0140001C014066
:104CC00070B506460025002400201E4908601E49D4
:104CD000C1F8A4011D490860304600F085F906209E
:104CE00003F010FB00201A49C1F88401012003F0F1
:104CF00009FB01201349086003F004FB002014495C
:104D0000C1F8840100BF15E04FF6FF7000EA4404CB
:104D100000200C490860012003F0F4FA01200C493E
:104D2000C1F8840107487C38006808B1601C84B26F
:104D3000681CC5B2102DE7DB24110120034908606F
:104D4000204670BD8481214200802342AC812342F1
:104D5000008021422DE9FE4380460027002406E022
:104D60004046FFF7ADFF2DF81400601C84B2052CFF
:104D7000F6DB002416E0601C85B20FE03DF814005D
:104D80003DF81510884207DD3DF814603DF8150028
:104D90002DF814002DF81560681C85B2052DEDDB8B
:104DA000601C84B2042CE6DB0027012405E03DF8FA
:104DB0001400384487B2601C84B2042CF7DB032053
:104DC00097FBF0F086B23046BDE8FE832DE9F04156
:104DD00004460D4607480078FFF7BCFF0646064824
:104DE0000078FFF7B7FF074626802F800120BDE837
:104DF000F081000070000020710000207FB50446A3
:104E00000D4602A903A8FFF7E1FF064616B90020E8
:104E100004B070BD694601A8FFF7D8FF06460EB979
:104E20000020F5E7BDF80400BDF80C10884206DC50
:104E3000BDF80C10BDF80400323081420CDBBDF827
:104E40000C00BDF80410884236DCBDF80410BDF833
:104E50000C00323081422FDABDF80000BDF8081096
:104E6000884206DCBDF80810BDF8000032308142EF
:104E70000CDBBDF80800BDF8001088421CDCBDF852
:104E80000010BDF808003230814215DABDF80C1070
:104E9000BDF80420881800EBD071C1F34F012180C8
:104EA000BDF80810BDF80020881800EBD071C1F3E0
:104EB0004F0129800120ABE70020A9E710B50E22A1
:104EC00004492820FCF778FD0A213620FCF786FDEE
:104ED00010BD0000600000202DE9F041044640486C
:104EE0000068002856D12CB13E49A1F10A00FFF715
:104EF00085FF3DE03B49A1F10A00FFF77FFFB8B312
:104F000038491639B1F92C0005F010FB0746354930
:104F10001639888905F022FB804632481638416AE6
:104F2000404605F02FFB0646394605F09FF9054639
:104F300005F0DCFA2B4916398881B1F92E0005F00D
:104F4000F5FA074627491639C88A05F007FB804657
:104F500024481638816A404605F014FB0646394657
:104F600005F084F9054605F0C1FA1E491639C882D4
:104F70001C48163890F8200000F0800038BBC02094
:104F80001849163981F82000084681898182C18A32
:104F9000C1831CE01348163890F8200000F0800010
:104FA00050B11048163890F8200020F080000D49CC
:104FB000163981F820000AE000210A48163881825B
:104FC000C1834FF6FF70074916398881C8820548AA
:104FD000163890F8200000F08000BDE8F081000055
:104FE000288123425200002070B50446002500BFEE
:104FF00017E004F0800018B101200B49086002E0BE
:105000000020094908606006040E00200749086076
:10501000012003F077F901200549C1F88401681CDB
:10502000C5B2082DE5DB70BDA481234284812142F5
:10503000008021427FB505460C4601210420FEF781
:1050400077FBADF80850ADF804400020ADF80A0039
:10505000ADF8060001A90D48FEF7CAFF0122412163
:105060000A48FEF7B8FF1E208DF8000003208DF8D7
:1050700001008DF8020001208DF803006846FEF75C
:105080005BF901210148FEF77DFF7FBD000800406C
:1050900010B540F225511D4800F0DDF810B31B4853
:1050A00000F094F9C4B21A48008800F40040C8B96E
:1050B0001748008800F4804060B10A2C03D000201B
:1050C0001349088020E01248008840F4004010494D
:1050D000088019E00D2C06D10D48008840F480406E
:1050E0000B49088010E00A480088C0F30D00094908
:1050F0000C5407480088401C054908800846008871
:10510000C72801DD0020088010BD000000380140E4
:10511000200000205C02002010B540F22551164806
:1051200000F099F8F8B1144800F050F9C4B21348EF
:10513000008800F40040B0B910480088B0F5167F30
:1051400012DA00210E48FEF751FF0C48008818B90A
:1051500001210B48FEF716FF08490888411C074A41
:10516000118008490C5405E00448008840F40040D0
:105170000249088010BD0000004800407200002075
:1051800000140040F805002021B1828942F4005249
:10519000828104E082894DF6FF731A408281704754
:1051A00010B504462048844209D101218803FEF746
:1051B000EFFA00214FF48040FEF7EAFA32E01B4894
:1051C000844209D101214804FEF7C2FA00214FF4BC
:1051D0000030FEF7BDFA25E01548844209D10121CF
:1051E0008804FEF7B5FA00214FF48020FEF7B0FAEC
:1051F00018E01048844209D10121C804FEF7A8FA3A
:1052000000214FF40020FEF7A3FA0BE00A48844285
:1052100008D101210805FEF79BFA00214FF4801008
:10522000FEF796FA10BD000000380140004400402F
:1052300000480040004C0040005000400246002062
:10524000B1F5007F00D100BF13880B400BB10120E6
:1052500000E00020704770B50246002400230025BE
:10526000002040F66A16B14200D100BFC1F34215DA
:1052700001F01F03012606FA03F3012D02D19689DE
:10528000334006E0022D02D1168A334001E0968AAF
:1052900033400C12012606FA04F41688344013B188
:1052A0000CB1012000E0002070BDF0B503460024E1
:1052B00000260025002040F66A17B94200D100BF41
:1052C0001846C1F3421401F01F06012707FA06F53C
:1052D000012C01D10C3004E0022C01D1103000E08F
:1052E00014301AB107682F43076002E00768AF4324
:1052F0000760F0BD2DE9F04786B005460E46002454
:10530000A24600BFA1460027B08900B100BF2F46CA
:105310002C8A4CF6FF700440F08804432C82AC8940
:105320004EF6F3100440B088318908437189084370
:105330000443AC81AC8A4FF6FF400440B08904437B
:10534000AC8201A8FEF734FA1F48874202D1DDF88B
:1053500010A001E0DDF80CA0A88900F4004040B1E5
:105360000AEBCA0000EB0A1031684900B0FBF1F803
:1053700007E00AEBCA0000EB0A1031688900B0FBB5
:10538000F1F86420B8FBF0F004012009642101FB6E
:105390001089A88900F4004040B1322000EBC90018
:1053A000B0FBF1F000F00700044308E0322000EB0E
:1053B00009106421B0FBF1F000F00F0004432C81D0
:1053C00006B0BDE8F087000000380140014688883B
:1053D000C0F308007047C1F308028280704700BF25
:1053E000FEE700002DE9F04106460C461746002076
:1053F0000F4908600320FEF70FFBC4F30740FEF7D8
:105400000BFBC4F30720FEF707FBE0B2FEF704FB3B
:10541000002505E0FF20FEF7FFFA7055681C85B2F5
:10542000BD42F7DB012002490860BDE8F0810000C1
:10543000B0812142490050EAC12018BF04204A0D22
:1054400018BF40F0010040F2FF72B2EB515F08BF9D
:1054500040F00200012808BF0520704730380A28B4
:1054600001D20120704700207047014600BF7047FD
:105470002DE9F04F89B00027B84640F2E73600200A
:10548000049081468246642103F09CF8054632224E
:10549000EAA1EBA001F0C0FCEC480368EC48EDA1E8
:1054A00002682846FAF748FF721CE4A1284601F07A
:1054B000B3FCEE480368EE48EEA102682846FAF70E
:1054C0003BFF721CF0A1284601F0A6FC00BF14228D
:1054D000F0A1F2A001F0A0FC0028F8D100BF142236
:1054E000F1A1EEA001F098FC0028F8D14FF6FF7072
:1054F000FDF7E8FA4FF47840ED49088000201021CC
:10550000ECA20B46CDE900210290C8221E210846DC
:10551000FEF794FB3222C9A1ECA001F07DFC4FF410
:10552000FA7002F0C9FEEC48ECA102682846FAF7CE
:1055300003FF3222C1A1284601F06EFC4FF4FA703D
:1055400002F0BAFE3222BDA1E9A001F065FC00BF65
:10555000EB481E210268322001F0F2FA044604F002
:10556000020000284DD04FF6FF70FDF7ABFA4FF464
:105570007840CF490880F0201023E2A21E2100903D
:105580000020FEF7BDFB00200C21E4A21023CDE992
:1055900000210290C82232211E20FEF74FFB05ABEE
:1055A000CD48E6A10268E7A000F056FD00B1CFE7C4
:1055B000C94805AAE9A103682846FAF7BDFE4FF6D7
:1055C000FF70FDF77FFAF0201023CEA21E2100907D
:1055D0000020FEF795FB00200C21D0A21023CDE97E
:1055E00000210290C82232211E20FEF727FBC8228C
:1055F00092A1284601F010FC204600F02BFF044643
:1056000061E004F00100002859D04FF6FF70FDF76B
:1056100059FA4FF47840A6490880F0201023D6A20A
:105620001E2100900020FEF76BFB00200C21BBA286
:105630001023CDE900210290C82232211E20FEF75E
:10564000FDFAD34850F8241005ABA3480268D1A056
:1056500000F002FD00B17BE79F4805AAD2A10368D4
:105660002846FAF769FE1EE04FF6FF70FDF72AFAAA
:105670004FF478408E490880F0201023D1A22821D1
:1056800000900020FEF73CFBF0200C23D1A250211B
:1056900000900020FEF734FB0020FDF7AFF907462D
:1056A000042F00D154E7C82264A1284601F0B4FBBE
:1056B0000028D9D1204600F0CDFE044603E0204664
:1056C00000F0C8FE04464FF6FF70FDF7FBF94FF4FB
:1056D000784077490880F0201023C5A21E21009051
:1056E0000020FEF70DFB00200C218CA21023CDE939
:1056F00000210290C82232210F20FEF79FFA4FF6B8
:10570000FF703E23EF22322100900F20FDF7A2FB15
:10571000F0200C23BDA2322100900020FEF7F0FA09
:105720004FF6FF705C23EF22502100900F20FDF711
:1057300091FB41210F2000F047FB00200C21BDA26E
:105740000B46CDE900210290C8225F210F20FEF711
:1057500075FA00200C21BAA20B46CDE90021029077
:10576000C8226E210F20FEF769FA00200C21B7A293
:105770000B46CDE900210290C8226E218720FEF75A
:105780005DFA00200C21B3A20B46CDE90021029066
:10579000C8227D210F20FEF751FA00200C21B0A273
:1057A0000B46CDE900210290C8228C210F20FEF784
:1057B00045FA2E480068AD490968CDE900102C482B
:1057C000ABA2C32103680F2002F08CF81F203849D8
:1057D000088000210C2204F003006D4B53F82000D8
:1057E0001346CDE901210090C8226E213F20FEF72B
:1057F00025FA00210C222011654B53F82000134696
:10580000CDE901210090C8226E21B120FEF716FAE1
:1058100000209D49088026E20020FDF7EFF80746AA
:10582000042F02D1002004901EE2012F04D10A208F
:1058300096FBF0FB5A4629E149E100004F4B00007E
:1058400041542B43574D4F44453D3300EC0100205C
:10585000E401002041542B43575341503D2225730E
:10586000222C222573222C312C340000E001002050
:10587000D801002041542B43574A41503D22257303
:10588000222C2225732200005749464920474F54B5
:1058900020495000535441495000000041542B43CB
:1058A000494653520000000041504950000000009A
:1058B0002400002041544B2D4553502041502B5380
:1058C0005441C4A3CABDB2E2CAD4000041542B4320
:1058D00049504D55583D3100D401002041542B43CF
:1058E00049505345525645523D312C257300000016
:1058F00041542B43495053544F3D31323030000016
:10590000F001002041544B2D455350205749464942
:105910002D535441B2E2CAD400000000D5FDD4DAC0
:10592000C5E4D6C341544B2D455350C4A3BFE92C05
:10593000C7EBC9D4B5C82E2E2E000000554450C464
:10594000A3CABD00574946492D535441D4B6B6CBDE
:10595000554450204950C9E8D6C3000041542B4358
:10596000495053544152543D302C22554450222C1E
:10597000222573222C25730041544B2D4553502072
:10598000574946492D53544120B2E2CAD400000081
:10599000FC010020574946492D53544120D4B6B646
:1059A000CB4950C9E8D6C30041542B434950535406
:1059B0004152543D302C22544350222C2225732234
:1059C0002C257300574B5F55503AB7B5BBD8D6D886
:1059D000D1A1000041544B2D45535020C1ACBDD343
:1059E00054435020536572766572CAA7B0DC00003C
:1059F00041544B2D45535020574946492D5354414E
:105A00002B415020B2E2CAD400000000574B5F5532
:105A1000503ACDCBB3F6204B4559303A494430B7D4
:105A2000A2CBCD204B4559313A494431B7A2CBCD19
:105A300000000000C1ACBDD3D7B4CCAC3A0000002C
:105A4000535441C4A3CABD3A000000004150C4A34E
:105A5000CABD3A00B7A2CBCDCAFDBEDD3A000000F8
:105A6000BDD3CAD5CAFDBEDD3A000000DC0100206E
:105A7000C7EBC9E8D6C3C2B7D3C9C6F7CEDECFDFFE
:105A8000B2CECAFDCEAA3A00720000207BA1284601
:105A9000FAF752FC00200C210B46C822CDE9005138
:105AA00002907D214520FEF7C9F8C822AFF274218B
:105AB00079A001F0B1F9C82002F0FEFB6422AFF238
:105AC0008421284601F0E2F94FF0640825E0022F16
:105AD00023D10A2096FBF0FB5A4673A12846FAF719
